S00F00005443435F365F322E7372656315
S1130000D0C0E2C0E1C0E0C0DFC0DEC0DDC0DCC003
S1130010DBC0DAC0D9C0D8C0D7C0D6C0D5C0D4C020
S1130020D3C0D2C0D1C007634236B79BD8A71A3910
S1130030685618AEBAAB558C1D3CB7CC5763BD6D32
S1130040EDFD753EF6177231BF000000803F0800D9
S11300500000BE922449123EABAAAA2ABECDCCCC43
S11300604C3E00000080BEABAAAAAA3E00000000DD
S1130070BF000000803F0000000000084178D3BBAF
S11300804387D1133D190E3CC3BD4282AD2B3E685C
S1130090EC8276BED98FE1A93E4C80EFFFBE01C44D
S11300A0FF7F3F000000000000407A10F35A00A0D8
S11300B0724E18090010A5D4E80000E8764817002D
S11300C000E40B54020000CA9A3B000000E1F5056D
S11300D0000080969800000040420F000000A086B7
S11300E001000000102700000000E80300000000E9
S11300F06400000000000A0000000000010000008D
S113010000002C76D888DC674F0823DFC1DFAE59A6
S1130110E1B1B796E5E3E453C63AE651997696E839
S1130120E6C28426EB898C9B62ED407C6FFCEFBCBD
S11301309C9F40F2BAA56FA5F490055A2AF75C93E8
S11301406B6CF9676DC11BFCE0E40D47FEF520E61E
S1130150B500D0ED902E0300943577050080841E01
S1130160080000204E0A000000C80C333333330F5C
S1130170986E12831141EF8D2114893BE65516CFF9
S1130180FEE6DB18D1844B381BF77C1D901DA4BB05
S1130190E424203284725E228100C9F124ECA1E5BA
S11301A03D2711241FBECFE5D4E0DEBFCDBF10E054
S11301B0A0E6B0E0ECE5FAE102C005900D92A83BA0
S11301C0B107D9F7E7D448CC1BCF959888230CF412
S11301D0959A949886FD949A939885FD939A92980B
S11301E084FD929AA89A84E08A95F1F7A89894E0FD
S11301F09A95F1F787E99AE30197F1F700C00000B7
S11302000895CF93DF93A99AA898C82FD0E0CE0180
S1130210DCDFCE0182959295907F9827807F982786
S1130220D4DFDF91CF9108950F931F93CF93DF9382
S113023000D0CDB7DEB78C011A821982E981FA8128
S1130240E80FF91F80818823D1F0E981FA81E00F5A
S1130250F11F808190E0D5DF29813A812F5F3F4FE4
S11302603A8329838FEE90E00197F1F700C00000F4
S1130270E981FA81E00FF11F80818111E6CF0F90AF
S11302800F90DF91CF911F910F910895CF93DF933A
S1130290A998A898C82FD0E0CE0197DFCE01829507
S11302A09295907F9827807F98278FDFDF91CF9159
S11302B008958D9A8C9A8B9A8A9AA09AA19A2FE77C
S11302C089EA93E0215080409040E1F700C00000AB
S11302D0A998A89880E390E078DF8FE295E70197EA
S11302E0F1F700C0000080E390E06FDF87E592E063
S11302F00197F1F700C0000080E390E066DF87E536
S113030092E00197F1F700C0000088E290E05DDF21
S11303108FEE90E00197F1F700C0000088E290E0D2
S1130320B5DF8FEE90E00197F1F700C0000088E0A0
S113033090E0ACDF8FEE90E00197F1F700C0000091
S113034081E090E0A3DF8FED9EE20197F1F700C01A
S1130350000086E090E09ADF8FEE90E00197F1F7DD
S113036000C000008CE090E091DF8FEE90E00197F8
S1130370F1F700C000000895CF93DF93CDB7DEB747
S11303802A970FB6F894DEBF0FBECDBF4AE050E007
S1130390BE016F5F7F4F90E0BDD8CE01019644DF70
S11303A02A960FB6F894DEBF0FBECDBFDF91CF9172
S11303B00895615090E4699F800D1124806866DF80
S11303C00895CF93C82F862F642FF3DF8C2F90E0EE
S11303D02BDFCF9108950F931F93CF93DF93CDB766
S11303E0DEB72A970FB6F894DEBF0FBECDBF30E05C
S11303F050E08E010F5F1F4F6ED8C80115DF2A969B
S11304000FB6F894DEBF0FBECDBFDF91CF911F9121
S11304100F9108958FB580628FBD8FB580688FBDB1
S11304208FB582608FBD8FB581608FBD8EB58860BA
S11304308EBD7894BA9AB99A0895379A329A309AB6
S11304403E9A3F9A3A9A0895853011F4389A01C039
S11304503898369A3699FECF84B195B108958E981E
S11304608F98B8980895869B1AC08699FECF2FEB73
S113047042EC54E0215040405040E1F700C00000FD
S113048080B3082E000C990B8827990F881F992791
S113049022E030E0A901481B590BCA01089580E00D
S11304A090E00895B09B0EC02FEF8EE994E22150A6
S11304B080409040E1F700C00000B09906C081E0A0
S11304C090E0089580E090E0089582E090E008953F
S11304D0FF920F931F93CF93DF93D82F162F69DFCB
S11304E08FE0D4DEC0E009E0F12C20C0BCDF813015
S11304F071F4CC2311F0C15001C0C02F612F8D2F96
S113050058DF8C2F39DF612F8D2F53DF0FC08230DE
S113051069F4C93011F0CF5F01C0CF2D612F8D2F49
S113052048DF8C2F29DF612F8D2F43DFBBDF892B21
S1130530E9F28CE0ABDE8C2F90E0DF91CF911F913C
S11305400F91FF9008952F923F924F925F926F9276
S11305507F928F929F92AF92BF92CF92DF92EF924F
S1130560FF920F931F93CF93DF9300D000D000D05E
S1130570CDB7DEB7682E462E342E522E2DB73EB799
S11305803E832D838DB79EB7861991090FB6F894D3
S11305909EBF0FBE8DBFEDB7FEB731965F014F0111
S11305A0662051F08FEF860D90E001968E0F9F1F0D
S11305B01192E817F907E1F7652D832DFADE8FE034
S11305C065DE712C22242394230CC62CD12C7601B5
S11305D0E418F108FFEFF60DF98321E0C21AD108FF
S11305E042DF8230B9F4872D90E08C159D0511F01F
S11305F0739401C0712C872D90E08E159F052CF00B
S1130600652D822D870DD5DE21C0652D872D830DA7
S1130610D0DE1CC08130D1F4711002C0798001C0D9
S11306207A94072D10E00E151F0544F0652D822DD8
S1130630870DBFDE37DF813029F510C0652D872D8A
S1130640830DB7DE2FDF8130E9F411C02BDF813059
S1130650C9F4072D10E00E151F054CF0652D822DF1
S1130660870D36DFF401E00FF11F808308C0652D8C
S1130670872D830D2DDFF401E00FF11F80838FE0C0
S113068005DEAECF823009F0ABCF6620F1F1650113
S1130690E62CF12CE418F10831E0E31AF1086A942D
S11306A0712C8FEF681A780AA60CB71C412C512CB8
S11306B03201F60111916F01B7010F2C000C880B68
S11306C0990B8DD49B01AC0160E070E080E291E471
S11306D09DD569837A838B839C83612F70E080E04E
S11306E090E07DD429813A814B815C812CD59B019A
S11306F0AC01C301B20175D32B013C01F1E0EF1A47
S1130700F108CA14DB04A9F603C0412C512C3201B0
S11307108CE0BCDDC301B2012D813E810FB6F8949B
S11307203EBF0FBE2DBF26960FB6F894DEBF0FBE98
S1130730CDBFDF91CF911F910F91FF90EF90DF908C
S1130740CF90BF90AF909F908F907F906F905F906D
S11307504F903F902F9008953F924F925F926F92E7
S11307607F928F929F92AF92BF92CF92DF92EF923D
S1130770FF920F931F93CF93DF9300D000D0CDB798
S1130780DEB7382E2A013B0109831A832B833C836D
S1130790811112C041E060E082E690E012DE42E0A6
S11307A060E08AE690E00DDE41E068E082E790E0F8
S11307B008DE84EF26DD2AC081E0381212C041E051
S11307C060E08AE790E0FDDD42E060E082E890E0EE
S11307D0F8DD41E068E082E790E0F3DD84EF11DDCD
S11307E046C082E0381212C041E060E08AE790E03F
S11307F0E8DD42E060E08AE690E0E3DD41E068E0C5
S11308008AE890E0DEDD84EFFCDC4CC083E0381243
S11308102EC061E081E0CDDD20E030E040E251E433
S1130820C301B20142D3882314F480E0A5DD22E0A1
S113083044E0C301B201CFDD62E081E0BADD21E032
S113084044E069817A818B819C81C5DD61E089E026
S1130850B0DD22E046E0C701B601BDDD62E089E01B
S1130860A8DD21E044E0C501B401B5DD1BC084E08E
S1130870381218C041E060E082E690E0A2DD42E078
S113088060E08AE690E09DDD41E068E082E790E088
S113089098DD84EFB6DC42E068E082E990E091DD27
S11308A08CEDAFDC0F900F900F900F90DF91CF91F4
S11308B01F910F91FF90EF90DF90CF90BF90AF907A
S11308C09F908F907F906F905F904F903F9008958E
S11308D09B9B11C01BBC1ABC19BC18BC81E0D6DCA4
S11308E041E062E08AE990E06CDD42E061E088EAA0
S11308F090E067DDFFCF08958F929F92AF92BF92F1
S1130900CF92DF92EF92FF920F931F93CF93DF93D7
S1130910CDB7DEB7C055D1090FB6F894DEBF0FBE10
S1130920CDBFCE0101966C017E0191E5E90EF11C6B
S1130930860184E089DDF801819391938F018FE230
S113094095E70197F1F700C00000EE15FF0589F760
S1130950AE01415B5F4F67E270E00C2D1D2D19C0A5
S1130960E02FF12F2191319180819181821793079A
S113097030F431832083DF0112978D939C93E41725
S1130980F50781F7615071094250510961307105D1
S113099021F01616170624F3F5CF8E010B5D1F4FB9
S11309A07E019DE2E90EF11C812C912C5401F80189
S11309B0819191918F01BC0180E090E00ED39B0165
S11309C0AC01C501B4010DD24B015C010E151F052C
S11309D071F720E030E040E85EE3B5D32EE33AE17E
S11309E04AE55EE3B0D3C05BDF4F0FB6F894DEBFD9
S11309F00FBECDBFDF91CF911F910F91FF90EF906C
S1130A00DF90CF90BF90AF909F908F9008958F927A
S1130A109F92AF92BF92CF92DF92EF92FF920F9389
S1130A201F93CF93DF93CDB7DEB7C055D1090FB66F
S1130A30F894DEBF0FBECDBFCE0101966C017E01DE
S1130A4091E5E90EF11C860185E0FEDCF801819355
S1130A5091938F018FE295E70197F1F700C00000B1
S1130A60EE15FF0589F7AE01415B5F4F67E270E069
S1130A700C2D1D2D19C0E02FF12F21913191808172
S1130A8091818217930730F431832083DF01129719
S1130A908D939C93E417F50781F7615071094250D7
S1130AA051096130710521F01616170624F3F5CFAC
S1130AB08E010B5D1F4F7E019DE2E90EF11C812C1E
S1130AC0912C5401F801819191918F01BC0180E036
S1130AD090E083D29B01AC01C501B40182D14B01EA
S1130AE05C010E151F0571F720E030E040E85EE37D
S1130AF02AD328E736EC43E35CE325D3C05BDF4F1E
S1130B000FB6F894DEBF0FBECDBFDF91CF911F911A
S1130B100F91FF90EF90DF90CF90BF90AF909F9098
S1130B208F900895CF92DF92EF92FF926B017C0138
S1130B3020E030E040E251E402D3181684F02DECBA
S1130B403CEC4CEC52E4C701B601FDD26B017C01D4
S1130B5020E030E0A901A9D1882369F008C00F2E54
S1130B60C12CD12CF0E8EF2EF4E4FF2EF02D8EB53D
S1130B7081608EBD03C08EB58E7F8EBDC701B60168
S1130B8000D27BBD6ABD79BD68BDFF90EF90DF9058
S1130B90CF900895CF93DF9300D000D0CDB7DEB7C8
S1130BA088DB38DC4ADC5BDCA3981BBC1ABC19BCB0
S1130BB018BC6894332431F8232C812C912C5401D3
S1130BC07501640195018401B501A40184E0C4DDCB
S1130BD02FEF8EE994E2215080409040E1F700C06D
S1130BE00000712C27C03FDC813091F4E2E07E16D6
S1130BF011F0739401C0712C812C912C5401750156
S1130C00640195018401B501A401872DA5DD12C0FD
S1130C10823081F4772011F07A9401C0722C812CF7
S1130C20912C54017501640195018401B501A4015D
S1130C30872D92DD37DC892BB1F2FFE729EA83E0C7
S1130C40F15020408040E1F700C00000711034C032
S1130C5021E041E0632D84E076DC64DF632D8FE0E6
S1130C60A8DB8BEDCEDA20C033DED1DE2B013C01D4
S1130C7043DE4B015C01A30192011BD16B017C019A
S1130C80A5019401C301B2015ED28B019C01B301A1
S1130C90A20183E061DD9FEBE4EDF1E09150E040DF
S1130CA0F040E1F700C00000FDDB0297E9F660E0E8
S1130CB070E0CB0137DF81CF21E0721241C0232DD8
S1130CC041E061E084E03FDC69837A838B839C8329
S1130CD0632D8FE06EDB8BED94DA2AC0F9DD0CDE38
S1130CE04B015C019B01AC0169817A818B819C8100
S1130CF0E0D018DF8CDE2B013C019B01AC01C50167
S1130D00B401D7D06B017C01A5019401C301B201E8
S1130D101AD28B019C01B301A20183E01DDD8FEB8C
S1130D2094EDE1E081509040E040E1F700C0000024
S1130D30B9DB029799F660E070E0CB01F3DE3DCFBA
S1130D40F2E07F123ACF21E049E062E085E0FBDB8C
S1130D5069837A838B839C8362E08FE02ADB8BED4B
S1130D6050DA36C0B5DDC8DD4B015C0129813A811A
S1130D704B815C819ED06B017C0120E030E040E23D
S1130D8051E4DDD1181644F40F2EC12CD12CF0E21D
S1130D90EF2EF1E4FF2EF02DC701B601C3DE37DEDE
S1130DA02B013C01A5019401CED18B019C01C9808A
S1130DB0DA80EB80FC80B301A20183E0CDDC2FEB71
S1130DC084ED91E0215080409040E1F700C00000A4
S1130DD069DB029739F660E070E0CB01A3DEEDCE6B
S1130DE05058BB27AA270ED070C161D130F066D10C
S1130DF020F031F49F3F11F41EF456C10EF4E09537
S1130E00E7FB4CC1E92F72D180F3BA17620773076D
S1130E108407950718F071F49EF58AC10EF4E095E5
S1130E200B2EBA2FA02D0B01B90190010C01CA01A0
S1130E30A0011124FF27591B99F0593F50F4503E4B
S1130E4068F11A16F040A22F232F342F4427585F3D
S1130E50F3CF469537952795A795F0405395C9F755
S1130E607EF41F16BA0B620B730B840BBAF091500D
S1130E70A1F0FF0FBB1F661F771F881FC2F70EC0AC
S1130E80BA0F621F731F841F48F48795779567957F
S1130E90B795F7959E3F08F0B3CF9395880F08F068
S1130EA09927EE0F979587950895D4D008F481E09B
S1130EB008950CD00AC102D140F0F9D030F021F4E9
S1130EC05F3F19F0EBC0511134C1EEC00FD198F35C
S1130ED09923C9F35523B1F3951B550BBB27AA27B7
S1130EE062177307840738F09F5F5F4F220F331F29
S1130EF0441FAA1FA9F333D00E2E3AF0E0E830D0F5
S1130F0091505040E695001CCAF729D0FE2F27D0F7
S1130F10660F771F881FBB1F261737074807AB07C5
S1130F20B0E809F0BB0B802DBF01FF2793585F4F3A
S1130F302AF09E3F510568F0B1C0FBC05F3FECF35F
S1130F40983EDCF3869577956795B795F7959F5FFF
S1130F50C9F7880F911D9695879597F90895E1E053
S1130F60660F771F881FBB1F621773078407BA07B2
S1130F7020F0621B730B840BBA0BEE1F88F7E0950D
S1130F800895BCD088F09F5790F0B92F9927B75196
S1130F90A0F0D1F0660F771F881F991F1AF0BA9539
S1130FA0C9F712C0B13081F0C3D0B1E00895C0C018
S1130FB0672F782F8827B85F39F0B93FCCF386952F
S1130FC077956795B395D9F73EF49095809570958C
S1130FD061957F4F8F4F9F4F0895E89409C097FB09
S1130FE03EF490958095709561957F4F8F4F9F4FFC
S1130FF09923A9F0F92F96E9BB279395F695879540
S113100077956795B795F111F8CFFAF4BB0F11F402
S113101060FF1BC06F5F7F4F8F4F9F4F16C08823A9
S113102011F096E911C0772321F09EE8872F762FDF
S113103005C0662371F096E8862F70E060E02AF020
S11310409A95660F771F881FDAF7880F969587950C
S113105097F90895990F0008550FAA0BE0E8FEEFE1
S113106016161706E807F907C0F012161306E40768
S1131070F50798F0621B730B840B950B39F40A2661
S113108061F0232B242B252B21F408950A2609F43F
S1131090A140A6958FEF811D811D089597F99F6743
S11310A080E870E060E008959FEF80EC08950024EC
S11310B00A941616170618060906089500240A94B9
S11310C012161306140605060895092E0394000C3F
S11310D011F4882352F0BB0F40F4BF2B11F460FFCE
S11310E004C06F5F7F4F8F4F9F4F089557FD9058F7
S11310F0440F551F59F05F3F71F04795880F97FBD8
S1131100991F61F09F3F79F0879508951216130691
S11311101406551FF2CF4695F1DF08C016161706C0
S11311201806991FF1CF86957105610508940895F5
S1131130E894BB2766277727CB0197F908958ADFC0
S113114008F48FEF08950BD0C0CFB1DF28F0B6DFDD
S113115018F0952309F0A2CFA7CF1124EACFC6DF58
S1131160A0F3959FD1F3950F50E0551F629FF001B6
S1131170729FBB27F00DB11D639FAA27F00DB11D0F
S1131180AA1F649F6627B00DA11D661F829F222798
S1131190B00DA11D621F739FB00DA11D621F839F1F
S11311A0A00D611D221F749F3327A00D611D231FF5
S11311B0849F600D211D822F762F6A2F11249F5743
S11311C050408AF0E1F088234AF0EE0FFF1FBB1F66
S11311D0661F771F881F91505040A9F79E3F510505
S11311E070F05CCFA6CF5F3FECF3983EDCF38695BE
S11311F077956795B795F795E7959F5FC1F7FE2BB0
S1131200880F911D9695879597F90895FA01EE0F29
S1131210FF1F30962105310599F16115710561F4BF
S11312208038BFE39B0749F168949038810561F0E9
S11312308038BFEF9B0741F0992342F5FF3FE1055A
S11312403105210511F1E8940894E795D901AA2301
S113125029F4AB2FBE2FF85FD0F310C0FF5F70F4FA
S1131260A695E0F7F73950F019F0FF3A38F49F7774
S11312709F930CD00F9007FC905808953EF014CF24
S113128060E070E080E89FE308954FE79F775F9305
S11312904F933F932F939ED02F913F914F915F9106
S11312A052DF05C019F40EF0F9CE42CFFDCE26DF91
S11312B0C8F39638C0F707F80F92E8942BE33AEA9C
S11312C048EB5FE74EDF0F920F920F924DB75EB778
S11312D00F92C0D0E6E2F0E016D04F915F91EF910B
S11312E0FF91E595EE1FFF1F49F0FE57E068442784
S11312F0EE0F441FFA95E1F74195550B32D00F904C
S113130007FE26C00895DF93CF931F930F93FF9298
S1131310EF92DF927B018C01689405C0DA2EEF0115
S11313201EDFFE01E894A5912591359145915591D3
S1131330AEF3EF0167DDFE019701A801DA9479F7B6
S1131340DF90EF90FF900F911F91CF91DF9108955F
S11313509B01AC0160E070E080E89FE3AACD9ECEE3
S1131360ACC0CCDEE8F39923D9F3940F511DBBF341
S11313709150504094F059F0882332F0660F771F53
S1131380881F91505040C1F79E3F510544F7880F84
S1131390911D9695879597F908955F3FACF0983E17
S11313A09CF0BB27869577956795B79508F4B1604F
S11313B09395C1F7BB0F58F711F460FFE8CF6F5F47
S11313C07F4F8F4F9F4FE3CFB4CE0EF076C06CCEDD
S11313D0689464CE93DEC8F39923D1F3C6F3DF9304
S11313E0CF931F930F93FF92C92FDD2788232AF0F1
S11313F02197660F771F881FDAF720E030E040E876
S11314005FEB9FE3883920F0803E30F021968F77A0
S1131410E8DCEEE4F0E003C0E4DCEBE7F0E073DFEB
S11314208B01BE01EC01FB2E6F5771097595771F77
S1131430880B990BD4DD28E132E741E35FE38FDECB
S1131440AF2D9801AE01FF900F911F91CF91DF91C5
S1131450D9DC3BCEFA01DC01AA0FBB1F9B01AC0116
S1131460BF5728F422273327442750781FC0B75189
S113147088F4AB2F0024469537952795011CA39536
S1131480D2F3002069F0220F331F441FB395DAF31F
S11314900DD0A6CC61307105A0E88A07B94630F4B6
S11314A09B01AC016627772788279078309621F036
S11314B0208331834283538308959F3F31F09150B9
S11314C020F4879577956795B795880F911D969524
S11314D0879597F90895EF920F931F93CF93DF9316
S11314E0E80147FD02C034E001C034E1E42F440FB9
S11314F0FF0BF7FF03C0F195E195F109E32E022FED
S11315002E2FAE0134D0CE01DF91CF911F910F91D8
S1131510EF9008954532510518F4423008F004C0A4
S1131520FB011082CB010895BB274A3031F4992383
S113153022F4BDE2909581959F4F01C0BB27FB012A
S11315405527AA27880F991FAA1FA41710F0A41BB8
S113155083955051B9F7A05DAA3308F0A95DA19312
S1131560009779F7B111B1931192CB0165C24F92F3
S11315705F926F927F929F92AF92BF92CF92DF92CF
S1131580EF92FF920F931F93CF93DF93CDB7DEB704
S113159029970FB6F894DEBF0FBECDBF6A01122F94
S11315A0B02E2BE3201720F0FF24F394F00E02C09A
S11315B0BCE3FB2E0F2D27E0AE014F5F5F4F64D1DC
S11315C0AC018981982F9970913031F0E1FC06C00B
S11315D0E0FE06C090E205C09DE203C09BE201C0AC
S11315E090E0EE2DE07183FF3CC0911102C083E0D6
S11315F001C084E0811718F4212F281B01C020E0CA
S1131600E1110BC0F601822F30E2882319F03193E7
S11316108150FBCFC20ED11C20E0992329F0D601C2
S11316209C93F60131966F01C6010396E2FE0AC04F
S11316303EE4D6013C9341E411964C9311971296E3
S11316403C9306C03EE6F601308341E64183328393
S1131650FC01322F40E2332309F442C0419331505C
S1131660FACF82FF44C0911102C083E001C084E03C
S1131670811718F4212F281B01C020E0E1110BC0B1
S1131680F601822F30E2882319F031938150FBCF89
S1131690C20ED11C20E0992329F0D6019C93F601B7
S11316A031966F01C6010396E2FE0BC039E4D60100
S11316B03C933EE411963C93119736E412963C9386
S11316C007C039E6F60130833EE6318336E63283DD
S11316D0FC01322F40E2332319F041933150FBCF08
S11316E0FC01E20FF11D10828EEF9FEFB7C0F1E015
S11316F0911101C0F0E06F2F70E01416150624F468
S11317009A012F5F3F4F02C021E030E0260F371FC0
S1131710BB2029F06B2D70E06F5F7F4F02C060E04B
S113172070E0260F371F612F70E0261737071CF46F
S1131730121B212F01C020E03E2D387159F4D6012F
S1131740322F60E2332319F06D933150FBCFC20E78
S1131750D11C20E0FF2331F0D6019C93B6016F5FCA
S11317607F4F6B01E1110BC0F601922F30E39923F7
S113177019F031939150FBCFC20ED11C20E09F2D64
S1131780940F3A81782F7071A72E84FF03C03133F0
S113179009F49150191624F4993018F098E001C016
S11317A091E0E42F852F57FF02C0E0E080E06E2F28
S11317B0782FE0E0F0E0AEE29A2E3A01691A71085F
S11317C02A01461A570A0B2D10E0119501951109AB
S11317D06F3F8FEF780729F4D6019C92C6010196DA
S11317E06C014617570784F0661677066CF47F0180
S11317F0E40CF51CA1E0B0E0AC0FBD1FEA0EFB1E2B
S1131800D7011196BC9002C090E3B92E61507109C2
S11318103196C60101967C016017710724F0D60148
S1131820BC926C01D5CF6417750741F4363320F4AC
S1131830353321F4A11002C081E3B82EF601B08241
S1131840F701822F90E2882319F091938150FBCF06
S1131850F701E20FF11D108280E090E029960FB6A7
S1131860F894DEBF0FBECDBFDF91CF911F910F91D2
S1131870FF90EF90DF90CF90BF90AF909F907F90BC
S11318806F905F904F900895283008F027E0332739
S1131890DA01990F311D87FD91600096610571058C
S11318A039F432602E5F3D9330E32A95E1F70895D1
S11318B09F3F30F080387105610509F03C5F3C5F63
S11318C03D93913008F08068911DDF93CF931F936F
S11318D00F93FF92EF92192F987F9695E92F969583
S11318E09695E90FFF27EE5FFE4F99273327EE24E5
S11318F0FF24A701E70105900894079428F4360F04
S1131900E71EF81E491F511D660F771F881F991F78
S11319100694A1F70590079428F4E70EF81E491FD2
S1131920561FC11D770F881F991F661F0694A1F7C4
S11319300590079428F4F80E491F561FC71FD11DA0
S1131940880F991F661F771F0694A1F705900794C7
S113195020F4490F561FC71FD81F990F661F771F02
S1131960881F0694A9F784911095177041F0D695B5
S1131970C79557954795F794E7941A95C1F7E8EA00
S1131980F0E06894159015913591659195910590C5
S11319907FE27395E118F10A430B560BC90BD0098A
S11319A0C0F7E10CF11E431F561FC91FD01D7EF462
S11319B0703311F48A95E6CFE894015030F0080FA3
S11319C00AF40027021708F4202F2395022F7A33F4
S11319D028F079E37D932A95E9F710C07D932A9541
S11319E089F6069497956795379517951794E11896
S11319F0F10A430B560BC90BD00998F023957E913D
S1131A0073957A3308F070E37C932013B8F77E91D2
S1131A1070617D9330F0839571E37D9370E32A9533
S1131A20E1F71124EF90FF900F911F91CF91DF9177
S1131A30992787FD90950895DC01FC01672F71912A
S1131A407723E1F7329704C07C916D9370836291A0
S10F1A50AE17BF07C8F30895F894FFCF49
S1131A5C2E003E30302E30304100203030302E30CD
S1131A6C5700203030302E3030002030302E3030C3
S1131A7C41003E3030302E3057003E3030302E3066
S1131A8C3000203030302E30560054656D70206F8D
S1131A9C7665726C6F6164005761697420616E6461
S10B1AAC207265626F6F740083
S9030000FC
